:020000020000FC
:10000000000033C0000018950000189500001895F6
:10001000000018950000189500001895000018952C
:10002000000018950000189500001895000018951C
:1000300000001895000018950000A5C10000189553
:1000400000001895000018950000189500001895FC
:1000500000001895000018950000189500001895EC
:100060000000189500001895000058E05EBF5FEF93
:100070005DBF3BD041D032D05527509329017894B1
:10008000249A239A219A51E050930B0180D16091D8
:100090001401C5E0CCD160930D0179D160911401B8
:1000A000C5E0C5D160930E0172D160911401C5E025
:1000B000BED160930F01DCE2E1E004D0E7CF1CD0B9
:1000C0008895FECFE395AEEF94E19A95F1F7AA9566
:1000D000D9F7DA95C1F7EA95B1F7089559E4509345
:1000E000150151EC50931601089550E055B950E0B8
:1000F00058B950E05BB9089552E357BD52E054BD82
:1001000053E055BD50916E00526050936E0051E027
:1001100050932E0100C051E050932F015AEF50939D
:100120002C0150E050932D01089510900B01139471
:1001300010920B0160910B01C0912E016C1708F415
:100140006BC050E050930B01109012011394109269
:10015000120162E3C09112016C1718F450E0509341
:1001600012015FEF50931A0160911201C0910001DA
:100170006C1728F450911A015E7F50931A01609118
:100180001201C09101016C1728F450911A015D7F92
:1001900050931A0160911201C09102016C1728F46A
:1001A00050911A015B7F50931A0160911201C09126
:1001B00003016C1728F450911A01577F50931A01CC
:1001C00060911201C09104016C1728F450911A013A
:1001D0005F7E50931A0160911201C09105016C1766
:1001E00028F450911A015F7D50931A016091120119
:1001F000C09106016C1728F450911A015F7B50934F
:100200001A0160911201C09107016C1728F45091F6
:100210001A015F7750931A0110900C0113941092F9
:100220000C0160910C01C0912F016C17E8F150E0B6
:1002300050930C012B982C98299850901A0150FC3F
:10024000299A2C9A2C98299850901A0151FC299A95
:100250002C9A2C98299850901A0152FC299A2C9A81
:100260002C98299850901A0153FC299A2C9A2C9872
:10027000299850901A0154FC299A2C9A2C98299864
:1002800050901A0155FC299A2C9A2C982998509034
:100290001A0156FC299A2C9A2C98299850901A01E8
:1002A00057FC299A2C9A2B9A1090090113941092BA
:1002B000090110900A0109F4139410920A01609147
:1002C000090170910A01C0912C01D0912D01A5D096
:1002D000009400FE57C050E05093090150930A016A
:1002E00058E050931001109010011A9410921001D0
:1002F0001A941092110100E0100EA12D00E021E0EF
:10030000021FB02F5C915093280150932701109049
:10031000100100E0100EA12D00E021E0021FB02F1F
:10032000509127015C9361E0C09110016C17D8F2E5
:10033000509100015093130160911301C0910D0180
:100340006C1768F400910D0120911301021B102E0F
:10035000212D269510901301120E1092000160912C
:100360000D01C09113016C1768F4009113012091E5
:100370000D01021B102E212D269510901301121A2B
:100380001092000108957DD0D0DEA9985DC057E09D
:1003900050932B0150911501509318015091160163
:1003A000509319016091180170911901889477FD9B
:1003B0000894661F771F609318017093190101E07C
:1003C000209115012023122E50E0252E1094012D8E
:1003D0002094122D21E0020F102E20E0121F212E5A
:1003E00000E024EB2222122D109018010125009329
:1003F0001501109019011125109316011090140188
:100400002091160121252093140110902B011A949C
:1004100010922B0109F0BECF08950024D71730F0B9
:100420007D1718F06C1708F00895009408950024C3
:1004300058E0552E660F001C0C1A616010F46E7F98
:100440000C0E5A94B9F7089555275093290110902E
:10045000210160911D01C0911E0170912501D09173
:10046000260100901C0100912201A0911F01209102
:100470002301B091200150911B015FBF50912401D5
:100480001895509324015FB750931B0110922101DE
:1004900060931D01C0931E0170932501D093260126
:1004A00000921C0100932201A0931F0120932301BD
:0C04B000B093200151E050932901089501
:00000001FF
