:020000020000FC
:0200000033C00B
:0200040018954D
:02000800189549
:02000C00189545
:02001000189541
:0200140018953D
:02001800189539
:02001C00189535
:02002000189531
:0200240018952D
:02002800189529
:02002C00189525
:02003000189521
:0200340018951D
:02003800189519
:02003C00189515
:02004000189511
:0200440018950D
:02004800189509
:02004C00189505
:02005000189501
:020054001895FD
:020058001895F9
:02005C001895F5
:020060001895F1
:020064001895ED
:1000680058E05EBF5FEF5DBF63D056D0F1E04ED081
:1000780050E05093030100900301039400920301A0
:100088005FEF5093010165D060910301633098F3ED
:10009800F1E03CD050E05093040150E0509303014C
:1000A8000090030103940092030150E05093020171
:1000B8000090020103940092020155275090040118
:1000C80050FC5395509300013AD0609104018894F4
:1000D80060FD0894679560930401F1E017D0609182
:1000E8000201683028F3609103016330C8F2BECF83
:1000F8008895FECFE395AEEF94E19A95F1F7AA952E
:10010800D9F7DA95C1F7EA95B1F70895D8EEE3E0A3
:10011800F1DFFA95D9F70895259A249A239A229A15
:10012800219A2D982C982B982A9829982D9A0895D9
:1001380050E055B950E058B950E05BB908952B9894
:100148002C9829985090000150FC299A2C9A2B9AA7
:1001580008952B985FEF50930201009002010394D9
:10016800009202012C9829985090010150FC299A7C
:100178002C9A6091010167956093010160910201D9
:08018800673058F32B9A08952B
:00000001FF
